:1000000012C0189518951895189518951895189563
:100010001895189518951895189518951895189578
:100020001895189518958FE58DBFC0E4E8E34E2E1E
:1000300084E08EBFD4E0F4E05F2EA89584B7082E4C
:10004000877F84BF88E1992781BD91BDEEEFF3E002
:10005000A0E6B0E088278D933197E9F770D3662446
:1000600074B7777F74BF8EE181BD86E081BDB89A99
:10007000B99ABA9ABB98BC98BD98BE98BF9883E8C5
:1000800086B980E487B9379A85E190E0A0E6B0E0D0
:100090008D939C9380E090E0AEE6B0E08D939C93CE
:1000A00080E090E0A4E7B0E08D939C9380E08093A3
:1000B000680080E08093690080E080936B0080E0BE
:1000C00080936C0082E390E0A0E7B0E08D939C9376
:1000D0008CE291E0A2E7B0E08D939C93E0E0F0E049
:1000E000AAE6B0E042D400916A00023380E010F04A
:1000F00009F081E08F9300916A000A3081E008F0F6
:1001000080E09F91892B882309F403C08EE18093BE
:100110006A00E1E0F0E0ADE6B0E027D400916D00C8
:10012000023380E010F009F081E08F9300916D00C0
:100130000A3081E008F080E09F91892B882309F440
:1001400003C080E280936D00E6D28CE040D3E6E607
:10015000F1E088E43CD358E0C895802D32D3319645
:100160005A95D1F704C02020200704060407E6E8CA
:10017000F1E080E52CD358E0C895802D22D331964C
:100180005A95D1F704C020202020202020208FE77E
:1001900011E0D0D2EEE7F9E0B8D28FEB11E0CAD28D
:1001A000E0E9F9E0B2D280ED97E03DD3B4D28FE739
:1001B00011E0C0D2E2EAF9E0A8D28FEB11E0BAD2A6
:1001C000EEEAF9E0A2D28CED95E02DD3A4D28FE730
:1001D00015E0B0D2EEEBF9E098D28FE71BE0AAD29F
:1001E000E2ECF9E092D281B5886081BDA0E7B0E091
:1001F0000D911C91003050E0150714F009F001C07A
:100200000AC0A0E7B0E00D911C9101501040A0E79A
:10021000B0E00D931C93A0E7B0E00D911C9100306D
:1002200050E0150709F013C076D28FE715E082D2AF
:10023000EEEBF9E06AD28FE71BE07CD2E2ECF9E06A
:1002400064D282E390E0A0E7B0E08D939C9307B185
:10025000007F006007B905D3A2E6B0E08D939C93C0
:10026000A2E6B0E00D911C9145E050E0F0D2A4E68A
:10027000B0E00D931C93A4E6B0E00D911C914AE010
:1002800050E021D2A6E6B0E04D935C938FE711E0F9
:1002900051D2A0E2B4E0E6E6F0E0FED22ED2E6ECE7
:1002A000F9E033D28FE717E045D2A0E2B4E0EAE606
:1002B000F0E0FED222D2E6ECF9E027D28FE71DE093
:1002C00039D2A0E2B4E0EDE6F0E0F2D216D2E6ECEC
:1002D000F9E01BD2B59907C0C19A8FEB11E02AD281
:1002E000E8ECF9E012D2AAE6B0E04D915527A6E677
:1002F000B0E00D911C910417150710F009F001C032
:1003000001C0C19AAAE6B0E04D915527A6E6B0E03B
:100310000D911C910417150781E008F080E08F9380
:10032000A6E3B0E00C9105FB81E00EF080E09F9128
:100330008923882309F401C0C198B39B03C080E0DE
:1003400080936800A6E3B0E00C9103FB81E00EF41B
:1003500080E08F9300916800003081E009F080E038
:100360009F918923882309F40EC081E0809368005F
:10037000AAE6B0E08C918F5F8C9388EB9BE0A4E7BA
:10038000B0E08D939C93B49B03C080E080936900A0
:10039000A6E3B0E00C9104FB81E00EF480E08F93C3
:1003A00000916900003081E009F080E09F9189238D
:1003B000882309F40EC081E080936900AAE6B0E0CA
:1003C0008C9181508C9388EB9BE0A4E7B0E08D93F7
:1003D0009C93B69B03C080E080936B00A6E3B0E0E3
:1003E0000C9106FB81E00EF480E08F9300916B008E
:1003F000003081E009F080E09F918923882309F48F
:100400000EC081E080936B00ADE6B0E08C918F5F11
:100410008C9388EB9BE0A4E7B0E08D939C93B79B13
:1004200003C080E080936C00A6E3B0E00C9107FB72
:1004300081E00EF480E08F9300916C00003081E049
:1004400009F080E09F918923882309F40EC081E0A0
:1004500080936C00ADE6B0E08C9181508C9388EB7A
:100460009BE0A4E7B0E08D939C93ADE6B0E04D91A6
:100470005527A6E6B0E00D911C910417150781E001
:1004800008F480E08F93A2E7B0E00D911C910C324C
:1004900051E0150780E00CF481E09F9189238823C7
:1004A00009F40AC0A2E7B0E00D911C910F5F1F4F45
:1004B000A2E7B0E00D931C93A2E7B0E00D911C9170
:1004C0000C3251E0150781E009F080E08F93AEE631
:1004D000B0E00D911C91003050E0150781E009F06B
:1004E00080E09F918923882309F406C086E090E08C
:1004F000AEE6B0E08D939C93ADE6B0E04D9155270C
:10050000A6E6B0E00D911C910417150708F006C08F
:1005100080E090E0A2E7B0E08D939C93A2E7B0E08A
:100520000D911C91003050E0150714F009F001C046
:1005300009C08FEB1EE0FED0A0E2B4E0E2E7F0E0FD
:10054000B0D1DBD0AEE6B0E00D911C91003050E0B0
:10055000150714F009F001C00AC0AEE6B0E00D9135
:100560001C9101501040AEE6B0E00D931C93AEE636
:10057000B0E00D911C91043050E0150709F001C066
:10058000C29AAEE6B0E00D911C91013050E0150723
:1005900009F001C0C298A4E7B0E00D911C910030B1
:1005A00050E0150714F009F001C00FC0A4E7B0E057
:1005B0000D911C9101501040A4E7B0E00D931C93E5
:1005C0008FE710E1B7D081E0FCD0A4E7B0E00D9157
:1005D0001C91013050E0150709F011C0E0E0F0E097
:1005E000AAE6B0E07BE7B0D1E1E0F0E0ADE6B0E054
:1005F0007BE7AAD18FE710E19DD082E0E2D0A0E6B0
:10060000B0E00D911C91003050E0150714F009F096
:1006100001C00AC0A0E6B0E00D911C91015010404D
:10062000A0E6B0E00D931C93A0E6B0E00D911C9104
:10063000063050E0150709F001C0C09AA0E6B0E00E
:100640000D911C91013050E0150709F001C0C098D0
:10065000A0E6B0E00D911C91003050E0150709F0C4
:1006600006C085E190E0A0E6B0E08D939C93A8954C
:1006700084E690E0D8D0BACDF894FFCF08D0E7D088
:1006800000FC10D0089503D01ED001F8F9CF00244B
:10069000E89457FF02C009D0689400F80BD010F816
:1006A0000124089502D009D00895509540954F5FD8
:1006B0005F4F0895E89417FF0895009510950F5F18
:1006C0001F4F68940895352F242FE894452B11F47B
:1006D00068940895512F402F0027112780E1440F7F
:1006E000551F001F111F021B130B416018F4020F4E
:1006F000131F4E7F8A9599F70895A0E2B4E08D917B
:10070000882311F05ED0FBCF0895B4D0802D11F076
:1007100058D0FBCF089581E05AD00ED080E857C062
:100720008FE7213039F08FEB223021F08FE8233032
:1007300009F08FEC810F4BC083E0992774C08AEFDA
:1007400090E071D0889A899A8A9A8B9A8E9A8F9A19
:10075000979885E090E067D0969890989198929AB3
:10076000939A969AEF93FF93E5E1F0E050D0FF91D2
:10077000EF91969855D0969AEF93FF93E5E1F0E0CC
:1007800046D0FF91EF9196984BD0969AEF93FF93B6
:10079000E5E1F0E03CD0FF91EF91969841D093983D
:1007A000969AEF93FF93E5E1F0E031D0FF91EF915E
:1007B000969836D088E20BD08EE009D086E007D03C
:1007C0000895979A829505D004D02AD008959798D5
:1007D000F9CF859510F4939A01C09398859510F4FC
:1007E000929A01C09298859510F4919A01C09198BF
:1007F000859510F4909A01C09098969AEF93FF9384
:10080000E5E1F0E004D0FF91EF91969808953197DB
:10081000F1F70895689462F80895E89462F80895ED
:1008200081E090E000C0EF93FF93EE27E82BE92BE7
:1008300031F0EAEFF0E03197F1F70197D1F7FF914E
:10084000EF910895019111912191308108950F92B6
:10085000B801469F8001479F100D569F100D0F90C5
:100860000895369A3699FECF369A3699FECF84B1DE
:1008700095B10895C895319600200895000F111F75
:10088000221F331F089500951095209530950F5F16
:100890001F4F2F4F3F4F0895019110810BC0D2DFA2
:1008A0000BC00191108117FF05C03FEF2FEF04C06F
:1008B000008111272227332737FF03C0E4DF8DE2B1
:1008C0008D93CF92DF92EF92AA24BB24CC24DD2417
:1008D000EE2440E2EAE0FF2755E093E38081890FB0
:1008E00087FD9F7083FD907F891B81935A95A9F79F
:1008F000C5DFAA1CBB1CCC1CDD1CEE1C4A9551F7A5
:10090000E894EFE0FF2782910CD0EB30E0F71EF087
:1009100068948A2D0AD088278D93EF90DF90CF902E
:100920000895982F829501D0892F8F70805D26F0D1
:10093000803309F4089568948D930895E199FECF6A
:10094000EEBBFFBB3196089591E001C092E07B378A
:1009500051F47FB7F894F2DF8D918DBBE29AE19A62
:100960009A95C9F77FBF7727089591E001C092E07B
:10097000E5DFE09A8DB38D939A95D1F7089546619E
:100980006E20262054656D7020556E69742100001C
:1009900062792054686F6D6173204A656E73656E6D
:1009A00000004654552072756E6E696E6700526580
:1009B0006164696E672074656D702E2E2E00463A54
:1009C0000000413A00004300466F72636520666193
:0209D0006E00B7
:00000001FF
