:1000000012C0189518951895189518951895189563
:100010001895189518951895189518951895189578
:100020001895189518958FE58DBFC0E4E8E34E2E1E
:1000300084E08EBFD4E0F4E05F2EA89584B7082E4C
:10004000877F84BF88E1992781BD91BDEEEFF3E002
:10005000A0E6B0E088278D933197E9F7B2D4662403
:1000600074B7777F74BF8EE181BD86E081BDB89A99
:10007000B99ABA9ABB98BC98BD98BE98BF98B99ADD
:10008000BA9A81EA8FBD81E08EBDB99ABA9A8FEF94
:1000900090E090934B0080934A008FEF90E0909314
:1000A00049008093480083E886B980E487B9379A8D
:1000B00085E190E0A0E6B0E08D939C9380E090E035
:1000C000AEE6B0E08D939C9380E090E0A4E7B0E0D2
:1000D0008D939C9380E08093680080E0809369001A
:1000E00080E080936B0080E080936C0082E390E07E
:1000F000A0E7B0E08D939C9380E090E0A2E7B0E0B1
:100100008D939C9380E08093780080E090E0AAE754
:10011000B0E08D939C9380E090E0AEE7B0E08D93EB
:100120009C938AE080937900E0E0F0E0AAE6B0E0FA
:100130005ED500916A00023380E010F009F081E0A2
:100140008F9300916A000A3081E008F080E09F916F
:10015000892B882309F403C08EE180936A00E1E0D3
:10016000F0E0ADE6B0E043D500916D00023380E0F1
:1001700010F009F081E08F9300916D000A3081E06A
:1001800008F080E09F91892B882309F403C080E266
:1001900080936D0002D48CE05CD4E2EBF1E088E463
:1001A00058D458E0C895802D4ED431965A95D1F741
:1001B00004C02020200704060407E2EDF1E080E5FA
:1001C00048D458E0C895802D3ED431965A95D1F741
:1001D00004C0202020202020202080E090E0909368
:1001E0004900809348008FE711E0E6D3E2E0FCE0AD
:1001F000CED38FEB15E0E0D3E4E1FCE0C8D380ED93
:1002000097E053D4CAD38FE711E0D6D3EEE1FCE0F8
:10021000BED38FEB11E0D0D3E8E2FCE0B8D380EDA1
:1002200097E043D4BAD38FE715E0C6D3E8E3FCE008
:10023000AED38FE71BE0C0D3ECE3FCE0A8D38FEB99
:1002400011E0BAD3E0E4FCE0A2D38FE711E0B4D32D
:10025000E6E4FCE09CD38FEF90E09093490080931C
:10026000480081B5886081BDA0E7B0E00D911C9188
:10027000003050E0150714F009F001C003C0A0E7FA
:10028000B0E037D3A0E7B0E00D911C91003050E012
:10029000150709F025C081D38FE711E08DD3A0E2C7
:1002A000B4E0E6E6F0E03AD46AD3EAE4FCE06FD3E7
:1002B0008FE715E081D3E8E3FCE069D38FE71BE02B
:1002C0007BD3ECE3FCE063D38FEB11E075D3E0E488
:1002D000FCE05DD382E390E0A0E7B0E08D939C93D7
:1002E00000917900003010F009F001C005C0809144
:1002F000790081508093790000917900003009F0F5
:1003000022C007B1007F006007B9EDD3A2E6B0E0DC
:100310008D939C93A2E6B0E00D911C9145E050E0D6
:10032000D8D3A4E6B0E00D931C93A4E6B0E00D9101
:100330001C914AE050E009D3A6E6B0E04D935C93EF
:1003400084E6809379008FE717E036D3A0E2B4E02B
:10035000EAE6F0E0EFD313D3EAE4FCE018D38FE74A
:100360001DE02AD3A0E2B4E0EDE6F0E0E3D307D34A
:10037000EAE4FCE00CD3AAE7B0E00D911C91003058
:1003800050E0150709F003C080E080937800AAE6EA
:10039000B0E04D915527A6E6B0E00D911C910417F1
:1003A000150708F012C0AAE7B0E00D911C910030CB
:1003B00050E0150709F003C080E08093780080E0EA
:1003C00090E0AEE7B0E08D939C93AAE6B0E04D914B
:1003D0005527A6E6B0E00D911C910417150781E0A2
:1003E00009F080E08F9300917800033081E009F4F8
:1003F00080E09F918923882309F428C081E08093BD
:10040000780088E592E0AAE7B0E08D939C93AEE790
:10041000B0E00D911C910C3251E015070CF401C0B5
:1004200003C0AEE7B0E05ED2AEE7B0E00D911C9144
:100430000C3251E0150709F009C082E08093780082
:1004400088E592E0AAE7B0E08D939C93AAE6B0E03D
:100450004D915527A6E6B0E00D911C9104171507A4
:1004600010F009F001C00FC083E08093780088E5A8
:1004700092E0AAE7B0E08D939C938CE291E0AEE726
:10048000B0E08D939C93AAE7B0E00D911C910030F1
:1004900050E0150714F009F001C003C0AAE7B0E06E
:1004A00028D2B59905C0A8E7B0E08C918E5F8C93F7
:1004B00000917800033010F009F001C003C083E020
:1004C0008093780000917800003009F006C08FEF2B
:1004D00090E090934B0080934A00009178000130A7
:1004E00009F006C08AEA90E090934B0080934A009E
:1004F00000917800023009F006C089E690E0909300
:100500004B0080934A0000917800033009F006C048
:1005100080E090E090934B0080934A008FEB15E0D1
:100520004BD2A0E2B4E0E8E7F0E004D328D2B599DA
:1005300006C08FEB17E040D2ECE4FCE028D2B39B7E
:1005400003C080E080936800A6E3B0E00C9103FB59
:1005500081E00EF480E08F9300916800003081E02C
:1005600009F080E09F918923882309F40EC081E07F
:1005700080936800AAE6B0E08C918F5F8C9388EB43
:100580009BE0A4E7B0E08D939C93B49B03C080E014
:1005900080936900A6E3B0E00C9104FB81E00EF4C7
:1005A00080E08F9300916900003081E009F080E0E5
:1005B0009F918923882309F40EC081E0809369000C
:1005C000AAE6B0E08C9181508C9388EB9BE0A4E785
:1005D000B0E08D939C93B69B03C080E080936B004A
:1005E000A6E3B0E00C9106FB81E00EF480E08F936F
:1005F00000916B00003081E009F080E09F91892339
:10060000882309F40EC081E080936B00ADE6B0E072
:100610008C918F5F8C9388EB9BE0A4E7B0E08D9387
:100620009C93B79B03C080E080936C00A6E3B0E08E
:100630000C9107FB81E00EF480E08F9300916C0039
:10064000003081E009F080E09F918923882309F43C
:100650000EC081E080936C00ADE6B0E08C918150DB
:100660008C9388EB9BE0A4E7B0E08D939C93ADE680
:10067000B0E04D915527A6E6B0E00D911C9104170E
:10068000150781E008F480E08F93A2E7B0E00D91B8
:100690001C910C3251E0150780E00CF481E09F9131
:1006A0008923882309F40AC0A2E7B0E00D911C91C8
:1006B0000F5F1F4FA2E7B0E00D931C93A2E7B0E0DD
:1006C0000D911C910C3251E0150781E009F080E09A
:1006D0008F93AEE6B0E00D911C91003050E015070D
:1006E00081E009F080E09F918923882309F406C006
:1006F00086E090E0AEE6B0E08D939C93ADE6B0E08E
:100700004D915527A6E6B0E00D911C9104171507F1
:1007100008F006C080E090E0A2E7B0E08D939C93E3
:10072000AEE6B0E00D911C91003050E0150714F0DA
:1007300009F001C00AC0AEE6B0E00D911C91015075
:100740001040AEE6B0E00D931C93AEE6B0E00D9124
:100750001C91043050E0150709F006C080E090E0DD
:100760009093490080934800AEE6B0E00D911C9153
:10077000013050E0150709F006C08FEF90E090932C
:10078000490080934800A4E7B0E00D911C9100302F
:1007900050E0150714F009F001C00FC0A4E7B0E065
:1007A0000D911C9101501040A4E7B0E00D931C93F3
:1007B0008FE710E101D181E046D1A4E7B0E00D91CF
:1007C0001C91013050E0150709F011C0E0E0F0E0A5
:1007D000AAE6B0E07BE7FAD1E1E0F0E0ADE6B0E018
:1007E0007BE7F4D18FE710E1E7D082E02CD18FEBEB
:1007F0001FE0E2D0A2E7B0E00D911C914AE050E08A
:1008000084D0A6E7B0E04D935C93A0E2B4E0E6E7C5
:10081000F0E089D1B4D08FEB19E0CED0AAE7B0E0F8
:100820000D911C914AE050E070D0ACE7B0E04D93E0
:100830005C93A0E2B4E0ECE7F0E075D1A0D08FEBE0
:100840001CE0BAD0AEE7B0E00D911C914AE050E058
:100850005CD0A0E8B0E04D935C93A0E2B4E0E0E8A7
:10086000F0E061D18CD0A0E6B0E00D911C91003099
:1008700050E0150714F009F001C00AC0A0E6B0E08E
:100880000D911C9101501040A0E6B0E00D931C9317
:10089000A0E6B0E00D911C91063050E0150709F07C
:1008A00001C0C09AA0E6B0E00D911C91013050E06B
:1008B000150709F001C0C098A0E6B0E00D911C91A9
:1008C000003050E0150709F006C085E190E0A0E691
:1008D000B0E08D939C93A89584E690E0E6D0C4CCDC
:1008E000F894FFCFED91FC91EF5FFF4FFC93EE93F7
:1008F0000895ED91FC91E150F040FC93EE93089542
:1009000008D0E7D000FC10D0089503D01ED001F825
:10091000F9CF0024E89457FF02C009D0689400F88A
:100920000BD010F80124089502D009D008955095F5
:1009300040954F5F5F4F0895E89417FF0895009525
:1009400010950F5F1F4F68940895352F242FE8945A
:10095000452B11F468940895512F402F002711273B
:1009600080E1440F551F001F111F021B130B416034
:1009700018F4020F131F4E7F8A9599F70895A0E28D
:10098000B4E08D91882311F05ED0FBCF0895B4D0F0
:10099000802D11F058D0FBCF089581E05AD00ED0B1
:1009A00080E857C08FE7213039F08FEB223021F0FB
:1009B0008FE8233009F08FEC810F4BC083E099273B
:1009C00074C08AEF90E071D0889A899A8A9A8B9A3B
:1009D0008E9A8F9A979885E090E067D09698909835
:1009E0009198929A939A969AEF93FF93E5E1F0E0AB
:1009F00050D0FF91EF91969855D0969AEF93FF9330
:100A0000E5E1F0E046D0FF91EF9196984BD0969AB1
:100A1000EF93FF93E5E1F0E03CD0FF91EF919698E2
:100A200041D09398969AEF93FF93E5E1F0E031D0AF
:100A3000FF91EF91969836D088E20BD08EE009D0E6
:100A400086E007D00895979A829505D004D02AD0E1
:100A500008959798F9CF859510F4939A01C09398CB
:100A6000859510F4929A01C09298859510F4919A08
:100A700001C09198859510F4909A01C09098969A2B
:100A8000EF93FF93E5E1F0E004D0FF91EF919698AA
:100A900008953197F1F70895689462F80895E894FD
:100AA00062F8089581E090E000C0EF93FF93EE2795
:100AB000E82BE92B31F0EAEFF0E03197F1F70197FD
:100AC000D1F7FF91EF91089501911191219130811A
:100AD00008950F92B801469F8001479F100D569FC1
:100AE000100D0F900895369A3699FECF369A3699A2
:100AF000FECF84B195B10895C89531960020089530
:100B0000000F111F221F331F089500951095209587
:100B100030950F5F1F4F2F4F3F4F08950191108168
:100B20000BC0D2DF0BC00191108117FF05C03FEF52
:100B30002FEF04C0008111272227332737FF03C07E
:100B4000E4DF8DE28D93CF92DF92EF92AA24BB2453
:100B5000CC24DD24EE2440E2EAE0FF2755E093E3D5
:100B60008081890F87FD9F7083FD907F891B819312
:100B70005A95A9F7C5DFAA1CBB1CCC1CDD1CEE1CBA
:100B80004A9551F7E894EFE0FF2782910CD0EB30C3
:100B9000E0F71EF068948A2D0AD088278D93EF9095
:100BA000DF90CF900895982F829501D0892F8F7074
:100BB000805D26F0803309F4089568948D9308953C
:100BC000E199FECFEEBBFFBB3196089591E001C0E5
:100BD00092E07B3751F47FB7F894F2DF8D918DBBB3
:100BE000E29AE19A9A95C9F77FBF7727089591E035
:100BF00001C092E0E5DFE09A8DB38D939A95D1F72D
:100C0000089546616E20262054656D7020556E69EA
:100C100074210000535720762E322E300000754389
:100C200074726C2E6E65740053797374656D2073E5
:100C300074617274203D2900463A0000413A000078
:0E0C400046616E3A00003F430000430046004C
:00000001FF
